:100000000C9434000C9449000C9449000C94490061
:100010000C9449000C9449000C9449000C9449003C
:100020000C9449000C9449000C9449000C9449002C
:100030000C9449000C9449000C9449000C9449001C
:100040000C9449000C9449000C9449000C9449000C
:100050000C9449000C9449000C9449000C944900FC
:100060000C9449000C94490011241FBECFEFD8E036
:10007000DEBFCDBF11E0A0E0B1E0EEE4FBE002C0E6
:1000800005900D92A233B107D9F70E9473010C9429
:10009000A5050C9400001092B90084E18093B8008B
:1000A00084E08093BC00089584EA8093BC00809132
:1000B000BC0087FFFCCF089584E98093BC008FE9E2
:1000C0009FE00197F1F700C0000008958093BB0006
:1000D00084EC8093BC008091BC0087FFFCCF089526
:1000E00084EC8093BC008091BC0087FFFCCF8091A2
:1000F000BB00089584E88093BC008091BC0087FF1A
:10010000FCCF8091BB0008950E9454008EE40E94B1
:1001100066008FEF0E9466002FEF89EF90E021507C
:1001200080409040E1F700C0000084E30E94660038
:1001300080E30E9466008FE39CE90197F1F700C01D
:10014000000084E30E94660080E30E9466008FE95D
:100150009FE00197F1F700C0000084E30E94660071
:1001600080E30E9466008FE99FE00197F1F700C0ED
:10017000000084E20E94660080E20E9466008FE92F
:100180009FE00197F1F700C000000C945C00CF9352
:10019000DF93C82F0E9454008EE40E946600DC2F7B
:1001A000D07F8D2F8C600E9466008D2F88600E940A
:1001B0006600C295C07F8C2F8C600E9466008C2FD9
:1001C0000E9466000E945C008FE39FE10197F1F7B7
:1001D00000C000008FE39FE10197F1F700C000002D
:1001E000DF91CF9108950E944B000E9484008CE221
:1001F0000E94C7008CE00E94C70086E00E94C700F2
:1002000080E80C94C700CF93DF93C82F0E9454005E
:100210008EE40E946600DC2FD07F8D2F8D600E94BF
:1002200066008D2F89600E946600C295C07F8C2F6A
:100230008D600E9466008C2F89600E9466000E947B
:100240005C008FE39FE10197F1F700C000008FE3AE
:100250009FE10197F1F700C00000DF91CF91089571
:10026000E62FF0E0E150FF4F81589081890F0C9408
:10027000C70081E00E94C7008FE39FE10197F1F77B
:1002800000C000000895CF93DF93EC0189918111A4
:1002900003C0DF91CF9108950E940301F7CFCF9360
:1002A000DF93CDB7DEB7A0970FB6F894DEBF0FBED1
:1002B000CDBF9E012B5D3F4FF901419151919F01AF
:1002C00060E270E0CE0101960E94BF02CE0101966D
:1002D0000E944301A0960FB6F894DEBF0FBECDBFBB
:1002E000DF91CF9108950E944B000E94F3000E947D
:1002F000D3010E94390148E16CE087E00E940602C8
:1003000040E06AE180E10E94D50182E0A82E81E010
:10031000B82E9AE0C92E91E0D92E29E1E22E21E0F3
:10032000F22E02E211E00E943B02562E672E782E3A
:100330000E947502EB01982E892E61E083E00E94F5
:100340003001BF92AF920E944F011F925F921F92A5
:100350006F921F927F92DF92CF920E944F0162E0D4
:1003600082E00E943001FF92EF920E944F018F9233
:100370009F921F92DF931F92CF931F930F930E9420
:100380004F012FEF83ED90E3215080409040E1F743
:1003900000C000008DB79EB744960FB6F8949EBF7C
:1003A0000FBE8DBFC0CF0C944B000F931F93CF9304
:1003B000DF93D82F162F042F0E94540080ED0E9447
:1003C000660080E00E946600CAE0802F6C2F0E94C9
:1003D000B3028295807F892B0E946600812F6C2F4B
:1003E0000E94B3028295807F892B0E9466008D2F28
:1003F0006C2F0E94B3028295807F892B0E94660039
:10040000DF91CF911F910F910C945C000F931F937C
:10041000CF93DF93082F162FD42F0E94540080ED26
:100420000E94660084E00E946600CAE0802F6C2F64
:100430000E94B3028295807F892B0E946600812FE3
:100440006C2F0E94B3028295807F892B0E946600E8
:100450008D2F64E60E94B302892F6C2F0E94B30295
:100460008295807F892B0E946600DF91CF911F913A
:100470000F910C945C000F931F93CF93DF930E9416
:10048000540080ED0E94660080E00E9466000E9499
:10049000540081ED0E9466000E947000182F129592
:1004A0001F700AE08F70109F800D1124182F0E947A
:1004B0007000D82FD295DF708F70D09F800D1124DF
:1004C000D82F0E947A00C82FC295CF708F70C09F1E
:1004D000800D1124C82F0E945C00612F7D2F8C2F6E
:1004E000DF91CF911F910F9108950F931F93CF9399
:1004F000DF930E94540080ED0E94660084E00E9419
:1005000066000E94540081ED0E9466000E94700007
:10051000182F12951F700AE08F70109F800D112404
:10052000182F0E947000D82FD295DF708F70D09F47
:10053000800D1124D82F0E947A00C82F0E945C00E1
:100540002C2F22952F70CF70209FC00D11242C2F9F
:1005500030E02053384F612F7D2FC901DF91CF91BB
:100560001F910F910895992778E0880F991F96178A
:1005700008F0961B881F7A95C9F780950895AEE01C
:10058000B0E0E5ECF2E00C947C058C01F62FE72F4F
:10059000BA01A90186E08C831A8309838F2F9E2FCD
:1005A000813020E8920710F080E090E801979E8368
:1005B0008D83CE0101960E94EF024D815E8157FD31
:1005C0000AC02F813885421753070CF49A01020F95
:1005D000131FF80110822E96E4E00C949805ABE00E
:1005E000B0E0E5EFF2E00C9471056C017B018A014B
:1005F000FC0117821682838181FFC9C19AE0592EBE
:10060000F6012381F70123FD859123FF81917F016D
:10061000811509F459C1853239F423FD959123FFE1
:1006200091917F01953229F4B60190E00E94E00497
:10063000E7CF912C612C712CF0E27F1640F59B32B4
:10064000D9F058F49032D1F09332F1F09E3299F50E
:1006500076FC3AC1689476F806C09D3291F09033EA
:10066000C1F4689470F8F70123FD959123FF9191EF
:100670007F019111E1CF26C0689471F8689472F8F7
:10068000F2CF689473F8EFCF689474F8ECCF77FCEE
:1006900019C080ED890F8A30C8F676FE05C0959C9A
:1006A000800D1124982EDFCF659C800D1124682EBB
:1006B000689475F8D8CF9C3619F4689477F8D3CF3E
:1006C000983689F2892F8F7D8554833008F488C04D
:1006D000933609F4A4C0933709F4A7C0933509F4FD
:1006E000B3C0943619F0993609F0DDC0F80177FEF1
:1006F000D3C061917191819191918F01272D2F76B6
:10070000822E97FF09C090958095709561957F4FD7
:100710008F4F9F4F689487F82AE030E0AE014F5F1B
:100720005F4F5A010E9410058A19A82EBA2C782C06
:1007300086FE0CC0E89470F8A91440F484FE05C04D
:1007400082FC03C0F82DFE7E7F2EB92C74FEF8C00B
:10075000FE01EA0DF11D8081803309F0EAC0272DEA
:10076000297E722E73FC0EC070FEF9C09A2CB6144E
:1007700018F4960C9B18B62C862D8B196B1408F464
:1007800080E0B80EB61408F0ECC06B1874FEEBC035
:10079000B60180E390E00E94E00472FE09C088E5A3
:1007A00090E071FC02C088E790E0B6010E94E0048E
:1007B000A91408F4E5C0AA94B12C4FEFA41AB40A06
:1007C000CE0101964C01A80EB91EF50182915F0180
:1007D000B60190E00E94E0048A149B04B1F715C0B2
:1007E0000C5F1F4F8FE3898388248394912CAE0183
:1007F0004F5F5F4F5A01E89477F873FC03C086148B
:10080000910498F181149104B9F5611409F4F8CEBA
:10081000B60180E290E00E94E0046A94F6CFF8010D
:10082000808189830E5F1F4FDFCFF801A190B190C7
:100830008F01692D70E076FC02C06FEF7FEFC5017C
:100840000E94D5044C01D7CFF801A190B1908F013F
:10085000692D70E076FC02C06FEF7FEFC5010E944A
:10086000CA044C01689477F8C8CFB60180E290E0E2
:100870000E94E0046A94C3CFF50177FC859177FE6E
:1008800081915F01B60190E00E94E00461106A94DA
:10089000F1E08F1A9108B6CF61917191072E000C8B
:1008A000880B990B2ACF872CE89484F82AE030E053
:1008B000953739F1572D597F852E9037A9F058F487
:1008C0009835A9F09F36D9F0F601868197812B964D
:1008D000EFE00C948D059837B9F784FE02C0689458
:1008E00082F820E130E00DC0689484F8F6CF74FE01
:1008F00003C0852F8660882E20E132E002C028E008
:1009000030E0F80187FE10C0619171918191919161
:100910008F01FE0131965F01AF010E9410058A1917
:10092000A82EE89487F802CF6191719180E090E061
:10093000EFCF72FC02C0B39415CFB394B39412CF2F
:10094000872D8678811509F40DCFF5CFB60180E2A9
:1009500090E00E94E00483948614C0F30DCF8B2CAA
:10096000FBCF612C13CF872D8678811509F420CF1A
:1009700080E271FC8BE277FC8DE2B60190E016CF4D
:10098000B60180E390E00E94E0049A9411CF8FEFCB
:100990009FEF9DCFFC010590615070400110D8F78A
:1009A000809590958E0F9F1F0895FC0161507040B7
:1009B00001900110D8F7809590958E0F9F1F089594
:1009C0000F931F93CF93DF93182F092FEB018B8188
:1009D00081FD09C01FEF0FEF812F902FDF91CF9185
:1009E0001F910F91089582FF14C02E813F818C8149
:1009F0009D81281739073CF4E881F981CF010196E0
:100A00009983888310838E819F8101969F838E8333
:100A1000E3CFE885F985812F0995892BA1F3DACFFA
:100A2000FA01AA27283051F1203181F1E8946F931F
:100A30006E7F6E5F7F4F8F4F9F4FAF4FB1E03ED0C5
:100A4000B4E03CD0670F781F891F9A1FA11D680F63
:100A5000791F8A1F911DA11D6A0F711D811D911D96
:100A6000A11D20D009F468943F912AE0269F11240B
:100A70003019305D3193DEF6CF010895462F47706F
:100A8000405D4193B3E00FD0C9F7F6CF462F4F70CA
:100A9000405D4A3318F0495D31FD4052419302D028
:100AA000A9F7EACFB4E0A6959795879577956795CE
:100AB000BA95C9F700976105710508959B01AC01CE
:100AC0000A2E06945795479537952795BA95C9F7F5
:100AD000620F731F841F951FA01D08952F923F92D0
:100AE0004F925F926F927F928F929F92AF92BF923E
:100AF000CF92DF92EF92FF920F931F93CF93DF93EA
:100B0000CDB7DEB7CA1BDB0B0FB6F894DEBF0FBE46
:100B1000CDBF09942A88398848885F846E847D8493
:100B20008C849B84AA84B984C884DF80EE80FD8095
:100B30000C811B81AA81B981CE0FD11D0FB6F8940B
:0E0B4000DEBF0FBECDBFED010895F894FFCFCC
:100B4E000040486F7261202D2000253032643A2516
:100B5E003032643A25303264004665636861202D78
:100B6E002000253032642F253032642F2530346436
:020B7E00000075
:04000003000000A851
:00000001FF
