:100000000C9434000C9449000C9449000C94490061
:100010000C9449000C9449000C9449000C9449003C
:100020000C9449000C9449000C9449000C9449002C
:100030000C9449000C9449000C9449000C9449001C
:100040000C9449000C9449000C9449000C9449000C
:100050000C9449000C9449000C9449000C944900FC
:100060000C9449000C94490011241FBECFEFD8E036
:10007000DEBFCDBF11E0A0E0B1E0E6E8F5E002C0F0
:1000800005900D92A631B107D9F70E9495010C9405
:10009000C1020C9400001092B90084E18093B80072
:1000A00084E08093BC00089584EA8093BC00809132
:1000B000BC0087FFFCCF089584E98093BC008FE9E2
:1000C0009FE00197F1F700C0000008958093BB0006
:1000D00084EC8093BC008091BC0087FFFCCF089526
:1000E00084E88093BC008091BC0087FFFCCF8091A6
:1000F000BB0008950E9454008EE40E9466008FEFBA
:100100000E9466002FEF89EF90E0215080409040E0
:10011000E1F700C0000084E30E94660080E30E94D3
:1001200066008FE39CE90197F1F700C0000084E3CB
:100130000E94660080E30E9466008FE99FE00197BD
:10014000F1F700C0000084E30E94660080E30E9493
:1001500066008FE99FE00197F1F700C0000084E29C
:100160000E94660080E20E9466008FE99FE001978E
:10017000F1F700C000000C945C00CF93DF93C82F10
:100180000E9454008EE40E946600DC2FD07F8D2FE9
:100190008C600E9466008D2F88600E946600C29568
:1001A000C07F8C2F8C600E9466008C2F0E9466009E
:1001B0000E945C008FE39FE10197F1F700C000000F
:1001C0008FE39FE10197F1F700C00000DF91CF912D
:1001D00008950E944B000E947A008CE20E94BD00AC
:1001E0008CE00E94BD0086E00E94BD0080E80C9477
:1001F000BD00CF93DF93C82F0E9454008EE40E946D
:100200006600DC2FD07F8D2F8D600E9466008D2FC1
:1002100089600E946600C295C07F8C2F8D600E940D
:1002200066008C2F89600E9466000E945C008FE34C
:100230009FE10197F1F700C000008FE39FE1019774
:10024000F1F700C00000DF91CF910895E62FF0E0B4
:10025000E150FF4F81589081890F0C94BD0081E0DF
:100260000E94BD008FE39FE10197F1F700C00000FD
:100270000895CF93DF93EC018991811103C0DF9141
:10028000CF9108950E94F900F7CFCF92DF92EF92BD
:10029000FF920F931F93CF93DF9300D000D00F9264
:1002A000CDB7DEB78C019B01CE0101967C0185E0C4
:1002B000F70111928A95E9F7FE0136968AE0C82E79
:1002C000D12C01151105C1F42F3F3207F9F4F701C4
:1002D00081918115C1F005301105ECF00F900F9060
:1002E0000F900F900F90DF91CF911F910F91FF9082
:1002F000EF90DF90CF900895C801B6010E94990257
:1003000082938B01DECF0F5F1F4FE2CF05E010E03D
:10031000021B130BE0CFF701E00FF11F8081805D1E
:100320000E94F9000F5F1F4FD6CF00D000D000D041
:10033000CDB7DEB70E94E9000E94070214E6AE01C5
:100340004C5F5F4FBE016B5F7F4FCE0106960E94F0
:100350000902AE014F5F5F4FBE016E5F7F4FCE015E
:1003600003960E944B020E942F0160E080E00E94F1
:10037000260182E091E00E9439018E8162E070E006
:1003800090E00E94450189E091E00E9439018D8151
:1003900062E070E090E00E94450189E091E00E94F7
:1003A00039018C8162E070E090E00E94450161E0DB
:1003B00080E00E9426018BE091E00E9439018B8150
:1003C00062E070E090E00E94450183E191E00E94CC
:1003D00039018A8162E070E090E00E94450183E18A
:1003E00091E00E9439018981612F0E948D0264E0B1
:1003F00070E0892F90E00E9445012FEF83ED90E39C
:10040000215080409040E1F700C0000098CF0C944C
:100410004B00CF92DF92FF920F931F93CF93DF9306
:10042000EC018B016A010E94540080ED0E9466007D
:1004300080E00E9466000E94540081ED0E946600E8
:100440000E947000982F929597702AE0F22E8F707C
:100450009F9D800D1124F60180830E947000982FCB
:10046000929597708F709F9D800D1124F801808365
:100470000E947000982F929593708F709F9D800DB1
:1004800011248883DF91CF911F910F91FF90DF900E
:10049000CF900C945C00CF92DF92FF920F931F934A
:1004A000CF93DF936C018B01EA010E94540080ED31
:1004B0000E94660084E00E9466000E94540081ED64
:1004C0000E9466000E947000982F92959F702AE00B
:1004D000F22E8F709F9D800D1124F60180830E9463
:1004E0007000982F92959F708F709F9D800D1124A2
:1004F000F80180830E947000982F92959F708F70F2
:100500009F9D800D11248883DF91CF911F910F91C2
:10051000FF90DF90CF900C945C00992778E0880FD3
:10052000991F961708F0961B881F7A95C9F7809532
:10053000089597FB072E16F4009407D077FD09D095
:100540000E94AD0207FC05D03EF4909581959F4F27
:100550000895709561957F4F0895AA1BBB1B51E1CB
:1005600007C0AA1FBB1FA617B70710F0A61BB70B23
:10057000881F991F5A95A9F780959095BC01CD01C8
:060580000895F894FFCF7E
:100586000040486F72613A20003A00466563686130
:060596003A20002F0000D6
:04000003000000A851
:00000001FF
